{
  "contractName": "Dispatcher",
  "abi": [
    {
      "anonymous": false,
      "inputs": [
        {
          "indexed": true,
          "internalType": "address",
          "name": "previousOwner",
          "type": "address"
        },
        {
          "indexed": true,
          "internalType": "address",
          "name": "newOwner",
          "type": "address"
        }
      ],
      "name": "OwnershipTransferred",
      "type": "event"
    },
    {
      "stateMutability": "payable",
      "type": "fallback"
    },
    {
      "inputs": [],
      "name": "owner",
      "outputs": [
        {
          "internalType": "address",
          "name": "",
          "type": "address"
        }
      ],
      "stateMutability": "view",
      "type": "function"
    },
    {
      "inputs": [],
      "name": "renounceOwnership",
      "outputs": [],
      "stateMutability": "nonpayable",
      "type": "function"
    },
    {
      "inputs": [
        {
          "internalType": "address",
          "name": "newOwner",
          "type": "address"
        }
      ],
      "name": "transferOwnership",
      "outputs": [],
      "stateMutability": "nonpayable",
      "type": "function"
    },
    {
      "stateMutability": "payable",
      "type": "receive"
    },
    {
      "inputs": [
        {
          "components": [
            {
              "internalType": "address",
              "name": "account",
              "type": "address"
            },
            {
              "internalType": "address",
              "name": "target",
              "type": "address"
            },
            {
              "internalType": "uint256",
              "name": "value",
              "type": "uint256"
            },
            {
              "internalType": "string",
              "name": "signature",
              "type": "string"
            },
            {
              "internalType": "bytes",
              "name": "data",
              "type": "bytes"
            }
          ],
          "internalType": "struct Dispatcher.Call[]",
          "name": "calls",
          "type": "tuple[]"
        },
        {
          "components": [
            {
              "internalType": "uint8",
              "name": "v",
              "type": "uint8"
            },
            {
              "internalType": "bytes32",
              "name": "r",
              "type": "bytes32"
            },
            {
              "internalType": "bytes32",
              "name": "s",
              "type": "bytes32"
            }
          ],
          "internalType": "struct Dispatcher.Sig[]",
          "name": "sigs",
          "type": "tuple[]"
        }
      ],
      "name": "tryDispatch",
      "outputs": [
        {
          "internalType": "uint256",
          "name": "blockNumber",
          "type": "uint256"
        },
        {
          "components": [
            {
              "internalType": "bool",
              "name": "success",
              "type": "bool"
            },
            {
              "internalType": "bytes",
              "name": "returnData",
              "type": "bytes"
            },
            {
              "internalType": "uint256",
              "name": "returnWei",
              "type": "uint256"
            }
          ],
          "internalType": "struct Dispatcher.Result[]",
          "name": "returnData",
          "type": "tuple[]"
        }
      ],
      "stateMutability": "payable",
      "type": "function"
    },
    {
      "inputs": [
        {
          "components": [
            {
              "internalType": "address",
              "name": "account",
              "type": "address"
            },
            {
              "internalType": "address",
              "name": "target",
              "type": "address"
            },
            {
              "internalType": "uint256",
              "name": "value",
              "type": "uint256"
            },
            {
              "internalType": "string",
              "name": "signature",
              "type": "string"
            },
            {
              "internalType": "bytes",
              "name": "data",
              "type": "bytes"
            }
          ],
          "internalType": "struct Dispatcher.Call",
          "name": "singleCall",
          "type": "tuple"
        },
        {
          "components": [
            {
              "internalType": "uint8",
              "name": "v",
              "type": "uint8"
            },
            {
              "internalType": "bytes32",
              "name": "r",
              "type": "bytes32"
            },
            {
              "internalType": "bytes32",
              "name": "s",
              "type": "bytes32"
            }
          ],
          "internalType": "struct Dispatcher.Sig",
          "name": "singleSig",
          "type": "tuple"
        }
      ],
      "name": "trySingleCall",
      "outputs": [
        {
          "internalType": "uint256",
          "name": "blockNumber",
          "type": "uint256"
        },
        {
          "components": [
            {
              "internalType": "bool",
              "name": "success",
              "type": "bool"
            },
            {
              "internalType": "bytes",
              "name": "returnData",
              "type": "bytes"
            },
            {
              "internalType": "uint256",
              "name": "returnWei",
              "type": "uint256"
            }
          ],
          "internalType": "struct Dispatcher.Result",
          "name": "returnData",
          "type": "tuple"
        }
      ],
      "stateMutability": "payable",
      "type": "function"
    },
    {
      "inputs": [],
      "name": "withdrawEth",
      "outputs": [],
      "stateMutability": "nonpayable",
      "type": "function"
    }
  ],
  "bytecode": "0x608060405234801561001057600080fd5b5061002d61002261003260201b60201c565b61003a60201b60201c565b6100fe565b600033905090565b60008060009054906101000a900473ffffffffffffffffffffffffffffffffffffffff169050816000806101000a81548173ffffffffffffffffffffffffffffffffffffffff021916908373ffffffffffffffffffffffffffffffffffffffff1602179055508173ffffffffffffffffffffffffffffffffffffffff168173ffffffffffffffffffffffffffffffffffffffff167f8be0079c531659141344cd1fd0a4f28419497f9722a3daafe3b4186f6b6457e060405160405180910390a35050565b611b7b8061010d6000396000f3fe6080604052600436106100595760003560e01c8063715018a6146100625780637453c026146100795780638da5cb5b146100aa5780639126d427146100d5578063a0ef91df14610106578063f2fde38b1461011d57610060565b3661006057005b005b34801561006e57600080fd5b50610077610146565b005b610093600480360381019061008e9190610f64565b6101ce565b6040516100a19291906110d1565b60405180910390f35b3480156100b657600080fd5b506100bf61049f565b6040516100cc9190611110565b60405180910390f35b6100ef60048036038101906100ea91906112d4565b6104c8565b6040516100fd92919061145e565b60405180910390f35b34801561011257600080fd5b5061011b610866565b005b34801561012957600080fd5b50610144600480360381019061013f919061148e565b61094d565b005b61014e610a45565b73ffffffffffffffffffffffffffffffffffffffff1661016c61049f565b73ffffffffffffffffffffffffffffffffffffffff16146101c2576040517f08c379a00000000000000000000000000000000000000000000000000000000081526004016101b990611518565b60405180910390fd5b6101cc6000610a4d565b565b60006101d8610b11565b4391506000846040516020016101ee9190611619565b6040516020818303038152906040528051906020012060405160200161021491906116b3565b60405160208183030381529060405280519060200120905060006001828660000151876020015188604001516040516000815260200160405260405161025d94939291906116f7565b6020604051602081039080840390855afa15801561027f573d6000803e3d6000fd5b505050602060405103519050600073ffffffffffffffffffffffffffffffffffffffff168173ffffffffffffffffffffffffffffffffffffffff16141580156102f75750856000015173ffffffffffffffffffffffffffffffffffffffff168173ffffffffffffffffffffffffffffffffffffffff16145b610336576040517f08c379a000000000000000000000000000000000000000000000000000000000815260040161032d90611788565b60405180910390fd5b6060600087606001515114156103525786608001519050610386565b8660600151805190602001208760800151604051602001610374929190611831565b60405160208183030381529060405290505b600080886020015173ffffffffffffffffffffffffffffffffffffffff168960400151846040516103b79190611859565b60006040518083038185875af1925050503d80600081146103f4576040519150601f19603f3d011682016040523d82523d6000602084013e6103f9565b606091505b5091509150604051806060016040528083151581526020018281526020014781525095506000471461049357886000015173ffffffffffffffffffffffffffffffffffffffff164760405161044d90611896565b60006040518083038185875af1925050503d806000811461048a576040519150601f19603f3d011682016040523d82523d6000602084013e61048f565b606091505b5050505b50505050509250929050565b60008060009054906101000a900473ffffffffffffffffffffffffffffffffffffffff16905090565b60006060439150835167ffffffffffffffff8111156104ea576104e9610b5e565b5b60405190808252806020026020018201604052801561052357816020015b610510610b11565b8152602001906001900390816105085790505b50905060008460405160200161053991906119ea565b6040516020818303038152906040528051906020012060405160200161055f91906116b3565b60405160208183030381529060405280519060200120905060005b855181101561085d57600086828151811061059857610597611a0c565b5b6020026020010151905060008683815181106105b7576105b6611a0c565b5b602002602001015190506000600185836000015184602001518560400151604051600081526020016040526040516105f294939291906116f7565b6020604051602081039080840390855afa158015610614573d6000803e3d6000fd5b505050602060405103519050600073ffffffffffffffffffffffffffffffffffffffff168173ffffffffffffffffffffffffffffffffffffffff161415801561068c5750826000015173ffffffffffffffffffffffffffffffffffffffff168173ffffffffffffffffffffffffffffffffffffffff16145b6106cb576040517f08c379a00000000000000000000000000000000000000000000000000000000081526004016106c290611788565b60405180910390fd5b6060600084606001515114156106e7578360800151905061071b565b8360600151805190602001208460800151604051602001610709929190611831565b60405160208183030381529060405290505b600080856020015173ffffffffffffffffffffffffffffffffffffffff1686604001518460405161074c9190611859565b60006040518083038185875af1925050503d8060008114610789576040519150601f19603f3d011682016040523d82523d6000602084013e61078e565b606091505b509150915060405180606001604052808315158152602001828152602001478152508988815181106107c3576107c2611a0c565b5b60200260200101819052506000471461084457856000015173ffffffffffffffffffffffffffffffffffffffff16476040516107fe90611896565b60006040518083038185875af1925050503d806000811461083b576040519150601f19603f3d011682016040523d82523d6000602084013e610840565b606091505b5050505b505050505050808061085590611a6a565b91505061057a565b50509250929050565b61086e610a45565b73ffffffffffffffffffffffffffffffffffffffff1661088c61049f565b73ffffffffffffffffffffffffffffffffffffffff16146108e2576040517f08c379a00000000000000000000000000000000000000000000000000000000081526004016108d990611518565b60405180910390fd5b3373ffffffffffffffffffffffffffffffffffffffff164760405161090690611896565b60006040518083038185875af1925050503d8060008114610943576040519150601f19603f3d011682016040523d82523d6000602084013e610948565b606091505b505050565b610955610a45565b73ffffffffffffffffffffffffffffffffffffffff1661097361049f565b73ffffffffffffffffffffffffffffffffffffffff16146109c9576040517f08c379a00000000000000000000000000000000000000000000000000000000081526004016109c090611518565b60405180910390fd5b600073ffffffffffffffffffffffffffffffffffffffff168173ffffffffffffffffffffffffffffffffffffffff161415610a39576040517f08c379a0000000000000000000000000000000000000000000000000000000008152600401610a3090611b25565b60405180910390fd5b610a4281610a4d565b50565b600033905090565b60008060009054906101000a900473ffffffffffffffffffffffffffffffffffffffff169050816000806101000a81548173ffffffffffffffffffffffffffffffffffffffff021916908373ffffffffffffffffffffffffffffffffffffffff1602179055508173ffffffffffffffffffffffffffffffffffffffff168173ffffffffffffffffffffffffffffffffffffffff167f8be0079c531659141344cd1fd0a4f28419497f9722a3daafe3b4186f6b6457e060405160405180910390a35050565b604051806060016040528060001515815260200160608152602001600081525090565b6000604051905090565b600080fd5b600080fd5b600080fd5b6000601f19601f8301169050919050565b7f4e487b7100000000000000000000000000000000000000000000000000000000600052604160045260246000fd5b610b9682610b4d565b810181811067ffffffffffffffff82111715610bb557610bb4610b5e565b5b80604052505050565b6000610bc8610b34565b9050610bd48282610b8d565b919050565b600080fd5b600073ffffffffffffffffffffffffffffffffffffffff82169050919050565b6000610c0982610bde565b9050919050565b610c1981610bfe565b8114610c2457600080fd5b50565b600081359050610c3681610c10565b92915050565b6000819050919050565b610c4f81610c3c565b8114610c5a57600080fd5b50565b600081359050610c6c81610c46565b92915050565b600080fd5b600080fd5b600067ffffffffffffffff821115610c9757610c96610b5e565b5b610ca082610b4d565b9050602081019050919050565b82818337600083830152505050565b6000610ccf610cca84610c7c565b610bbe565b905082815260208101848484011115610ceb57610cea610c77565b5b610cf6848285610cad565b509392505050565b600082601f830112610d1357610d12610c72565b5b8135610d23848260208601610cbc565b91505092915050565b600067ffffffffffffffff821115610d4757610d46610b5e565b5b610d5082610b4d565b9050602081019050919050565b6000610d70610d6b84610d2c565b610bbe565b905082815260208101848484011115610d8c57610d8b610c77565b5b610d97848285610cad565b509392505050565b600082601f830112610db457610db3610c72565b5b8135610dc4848260208601610d5d565b91505092915050565b600060a08284031215610de357610de2610b48565b5b610ded60a0610bbe565b90506000610dfd84828501610c27565b6000830152506020610e1184828501610c27565b6020830152506040610e2584828501610c5d565b604083015250606082013567ffffffffffffffff811115610e4957610e48610bd9565b5b610e5584828501610cfe565b606083015250608082013567ffffffffffffffff811115610e7957610e78610bd9565b5b610e8584828501610d9f565b60808301525092915050565b600060ff82169050919050565b610ea781610e91565b8114610eb257600080fd5b50565b600081359050610ec481610e9e565b92915050565b6000819050919050565b610edd81610eca565b8114610ee857600080fd5b50565b600081359050610efa81610ed4565b92915050565b600060608284031215610f1657610f15610b48565b5b610f206060610bbe565b90506000610f3084828501610eb5565b6000830152506020610f4484828501610eeb565b6020830152506040610f5884828501610eeb565b60408301525092915050565b60008060808385031215610f7b57610f7a610b3e565b5b600083013567ffffffffffffffff811115610f9957610f98610b43565b5b610fa585828601610dcd565b9250506020610fb685828601610f00565b9150509250929050565b610fc981610c3c565b82525050565b60008115159050919050565b610fe481610fcf565b82525050565b600081519050919050565b600082825260208201905092915050565b60005b83811015611024578082015181840152602081019050611009565b83811115611033576000848401525b50505050565b600061104482610fea565b61104e8185610ff5565b935061105e818560208601611006565b61106781610b4d565b840191505092915050565b61107b81610c3c565b82525050565b60006060830160008301516110996000860182610fdb565b50602083015184820360208601526110b18282611039565b91505060408301516110c66040860182611072565b508091505092915050565b60006040820190506110e66000830185610fc0565b81810360208301526110f88184611081565b90509392505050565b61110a81610bfe565b82525050565b60006020820190506111256000830184611101565b92915050565b600067ffffffffffffffff82111561114657611145610b5e565b5b602082029050602081019050919050565b600080fd5b600061116f61116a8461112b565b610bbe565b9050808382526020820190506020840283018581111561119257611191611157565b5b835b818110156111d957803567ffffffffffffffff8111156111b7576111b6610c72565b5b8086016111c48982610dcd565b85526020850194505050602081019050611194565b5050509392505050565b600082601f8301126111f8576111f7610c72565b5b813561120884826020860161115c565b91505092915050565b600067ffffffffffffffff82111561122c5761122b610b5e565b5b602082029050602081019050919050565b600061125061124b84611211565b610bbe565b9050808382526020820190506060840283018581111561127357611272611157565b5b835b8181101561129c57806112888882610f00565b845260208401935050606081019050611275565b5050509392505050565b600082601f8301126112bb576112ba610c72565b5b81356112cb84826020860161123d565b91505092915050565b600080604083850312156112eb576112ea610b3e565b5b600083013567ffffffffffffffff81111561130957611308610b43565b5b611315858286016111e3565b925050602083013567ffffffffffffffff81111561133657611335610b43565b5b611342858286016112a6565b9150509250929050565b600081519050919050565b600082825260208201905092915050565b6000819050602082019050919050565b60006060830160008301516113906000860182610fdb565b50602083015184820360208601526113a88282611039565b91505060408301516113bd6040860182611072565b508091505092915050565b60006113d48383611378565b905092915050565b6000602082019050919050565b60006113f48261134c565b6113fe8185611357565b93508360208202850161141085611368565b8060005b8581101561144c578484038952815161142d85826113c8565b9450611438836113dc565b925060208a01995050600181019050611414565b50829750879550505050505092915050565b60006040820190506114736000830185610fc0565b818103602083015261148581846113e9565b90509392505050565b6000602082840312156114a4576114a3610b3e565b5b60006114b284828501610c27565b91505092915050565b600082825260208201905092915050565b7f4f776e61626c653a2063616c6c6572206973206e6f7420746865206f776e6572600082015250565b60006115026020836114bb565b915061150d826114cc565b602082019050919050565b60006020820190508181036000830152611531816114f5565b9050919050565b61154181610bfe565b82525050565b600081519050919050565b600082825260208201905092915050565b600061156e82611547565b6115788185611552565b9350611588818560208601611006565b61159181610b4d565b840191505092915050565b600060a0830160008301516115b46000860182611538565b5060208301516115c76020860182611538565b5060408301516115da6040860182611072565b50606083015184820360608601526115f28282611563565b9150506080830151848203608086015261160c8282611039565b9150508091505092915050565b60006020820190508181036000830152611633818461159c565b905092915050565b600081905092915050565b7f19457468657265756d205369676e6564204d6573736167653a0a333200000000600082015250565b600061167c601c8361163b565b915061168782611646565b601c82019050919050565b6000819050919050565b6116ad6116a882610eca565b611692565b82525050565b60006116be8261166f565b91506116ca828461169c565b60208201915081905092915050565b6116e281610eca565b82525050565b6116f181610e91565b82525050565b600060808201905061170c60008301876116d9565b61171960208301866116e8565b61172660408301856116d9565b61173360608301846116d9565b95945050505050565b7f494e56414c49445f5349474e4154555245000000000000000000000000000000600082015250565b60006117726011836114bb565b915061177d8261173c565b602082019050919050565b600060208201905081810360008301526117a181611765565b9050919050565b60007fffffffff0000000000000000000000000000000000000000000000000000000082169050919050565b6000819050919050565b6117ef6117ea826117a8565b6117d4565b82525050565b600081905092915050565b600061180b82610fea565b61181581856117f5565b9350611825818560208601611006565b80840191505092915050565b600061183d82856117de565b60048201915061184d8284611800565b91508190509392505050565b60006118658284611800565b915081905092915050565b50565b60006118806000836117f5565b915061188b82611870565b600082019050919050565b60006118a182611873565b9150819050919050565b600081519050919050565b600082825260208201905092915050565b6000819050602082019050919050565b600060a0830160008301516118ef6000860182611538565b5060208301516119026020860182611538565b5060408301516119156040860182611072565b506060830151848203606086015261192d8282611563565b915050608083015184820360808601526119478282611039565b9150508091505092915050565b600061196083836118d7565b905092915050565b6000602082019050919050565b6000611980826118ab565b61198a81856118b6565b93508360208202850161199c856118c7565b8060005b858110156119d857848403895281516119b98582611954565b94506119c483611968565b925060208a019950506001810190506119a0565b50829750879550505050505092915050565b60006020820190508181036000830152611a048184611975565b905092915050565b7f4e487b7100000000000000000000000000000000000000000000000000000000600052603260045260246000fd5b7f4e487b7100000000000000000000000000000000000000000000000000000000600052601160045260246000fd5b6000611a7582610c3c565b91507fffffffffffffffffffffffffffffffffffffffffffffffffffffffffffffffff821415611aa857611aa7611a3b565b5b600182019050919050565b7f4f776e61626c653a206e6577206f776e657220697320746865207a65726f206160008201527f6464726573730000000000000000000000000000000000000000000000000000602082015250565b6000611b0f6026836114bb565b9150611b1a82611ab3565b604082019050919050565b60006020820190508181036000830152611b3e81611b02565b905091905056fea2646970667358221220272021c904da038d44f4580b772ec7dd0b16e5c2b012eb7f59bdb4bbd43cd7ce64736f6c634300080a0033",
  "immutableReferences": {},
  "source": "// SPDX-License-Identifier: MIT\n\npragma solidity ^0.8.0;\n\nimport \"@openzeppelin/contracts/access/Ownable.sol\";\n\n/**\n * @title Dispatcher\n * \n * Inspired by multicall and timelock contract.\n *\n * - https://github.com/makerdao/multicall/blob/master/src/Multicall.sol\n * - https://github.com/compound-finance/compound-protocol/blob/v2.8.1/contracts/Timelock.sol\n */\ncontract Dispatcher is Ownable {\n    // TODO: gas limit per Call.\n\n    struct Call {\n        address account; // caller\n        address target; // callee\n        uint256 value; // wei\n        string signature; // function selector\n        bytes data; // args\n    }\n\n    struct Sig {\n        uint8 v; bytes32 r; bytes32 s;\n    }\n\n    struct Result {\n        bool success;\n        bytes returnData;\n        uint256 returnWei;\n    }\n\n    function tryDispatch(\n        Call[] memory calls, // be a bmsg\n        Sig[] memory sigs\n    ) public payable returns (\n        uint256 blockNumber,\n        Result[] memory returnData\n    ) {\n        blockNumber = block.number;\n        returnData = new Result[](calls.length);\n        \n        // bmsg\n        bytes32 digest = keccak256(\n            abi.encodePacked(\n                '\\x19Ethereum Signed Message:\\n32',\n                keccak256(abi.encode(calls))\n            )\n        );\n\n        // TODO: random order using ChainLink VRF.\n        for(uint256 i = 0; i < calls.length; i++) {\n            Call memory callEach = calls[i];\n            Sig memory sigEach = sigs[i];\n\n            address recoveredAddress = ecrecover(digest, sigEach.v, sigEach.r, sigEach.s);\n            require(\n                recoveredAddress != address(0) && recoveredAddress == callEach.account,\n                \"INVALID_SIGNATURE\"\n            );\n\n            bytes memory callData;\n            if (bytes(callEach.signature).length == 0) {\n                callData = callEach.data;\n            } else {\n                callData = abi.encodePacked(\n                    bytes4(keccak256(bytes(callEach.signature))), callEach.data\n                );\n            }\n\n            (bool success, bytes memory ret) = callEach.target.call{value: callEach.value}(callData);            \n            returnData[i] = Result(success, ret, address(this).balance);\n\n            if (address(this).balance != 0) {\n                callEach.account.call{value: address(this).balance}(\"\");\n            }\n        }   \n    }\n\n    function trySingleCall(\n        Call memory singleCall, // bmsg\n        Sig memory singleSig\n    ) public payable returns (\n        uint256 blockNumber,\n        Result memory returnData\n    ) {\n        blockNumber = block.number;\n        \n        bytes32 digest = keccak256(\n            abi.encodePacked(\n                '\\x19Ethereum Signed Message:\\n32',\n                keccak256(abi.encode(singleCall))\n            )\n        );\n\n        address recoveredAddress = ecrecover(digest, singleSig.v, singleSig.r, singleSig.s);\n        require(\n            recoveredAddress != address(0) && recoveredAddress == singleCall.account,\n            \"INVALID_SIGNATURE\"\n        );\n\n        bytes memory callData;\n        if (bytes(singleCall.signature).length == 0) {\n            callData = singleCall.data;\n        } else {\n            callData = abi.encodePacked(\n                bytes4(keccak256(bytes(singleCall.signature))), singleCall.data\n            );\n        }\n\n        (bool success, bytes memory ret) = singleCall.target.call{value: singleCall.value}(callData);            \n        returnData = Result(success, ret, address(this).balance);\n\n        if (address(this).balance != 0) {\n            singleCall.account.call{value: address(this).balance}(\"\");\n        }\n    }\n\n    function withdrawEth() public onlyOwner {\n        msg.sender.call{value: address(this).balance}(\"\");\n    }\n\n    receive() external payable { }\n\n    fallback() external payable { }\n}\n",
  "sourcePath": "/Users/lukepark/Desktop/BATCHA/dev/batcha-dispatcher/contracts/Dispatcher.sol",
  "compiler": {
    "name": "solc",
    "version": "0.8.10+commit.fc410830.Emscripten.clang"
  },
  "schemaVersion": "3.4.3",
  "updatedAt": "2021-12-18T12:47:24.915Z",
  "devdoc": {
    "kind": "dev",
    "methods": {
      "owner()": {
        "details": "Returns the address of the current owner."
      },
      "renounceOwnership()": {
        "details": "Leaves the contract without owner. It will not be possible to call `onlyOwner` functions anymore. Can only be called by the current owner. NOTE: Renouncing ownership will leave the contract without an owner, thereby removing any functionality that is only available to the owner."
      },
      "transferOwnership(address)": {
        "details": "Transfers ownership of the contract to a new account (`newOwner`). Can only be called by the current owner."
      }
    },
    "title": "Dispatcher  Inspired by multicall and timelock contract. - https://github.com/makerdao/multicall/blob/master/src/Multicall.sol - https://github.com/compound-finance/compound-protocol/blob/v2.8.1/contracts/Timelock.sol",
    "version": 1
  },
  "userdoc": {
    "kind": "user",
    "methods": {},
    "version": 1
  }
}