{
  "contractName": "Relayer",
  "abi": [
    {
      "anonymous": false,
      "inputs": [
        {
          "indexed": true,
          "internalType": "address",
          "name": "previousOwner",
          "type": "address"
        },
        {
          "indexed": true,
          "internalType": "address",
          "name": "newOwner",
          "type": "address"
        }
      ],
      "name": "OwnershipTransferred",
      "type": "event"
    },
    {
      "stateMutability": "payable",
      "type": "fallback"
    },
    {
      "inputs": [],
      "name": "fee",
      "outputs": [
        {
          "internalType": "uint256",
          "name": "",
          "type": "uint256"
        }
      ],
      "stateMutability": "view",
      "type": "function"
    },
    {
      "inputs": [],
      "name": "keyHash",
      "outputs": [
        {
          "internalType": "bytes32",
          "name": "",
          "type": "bytes32"
        }
      ],
      "stateMutability": "view",
      "type": "function"
    },
    {
      "inputs": [],
      "name": "owner",
      "outputs": [
        {
          "internalType": "address",
          "name": "",
          "type": "address"
        }
      ],
      "stateMutability": "view",
      "type": "function"
    },
    {
      "inputs": [],
      "name": "randomResult",
      "outputs": [
        {
          "internalType": "uint256",
          "name": "",
          "type": "uint256"
        }
      ],
      "stateMutability": "view",
      "type": "function"
    },
    {
      "inputs": [
        {
          "internalType": "bytes32",
          "name": "requestId",
          "type": "bytes32"
        },
        {
          "internalType": "uint256",
          "name": "randomness",
          "type": "uint256"
        }
      ],
      "name": "rawFulfillRandomness",
      "outputs": [],
      "stateMutability": "nonpayable",
      "type": "function"
    },
    {
      "inputs": [],
      "name": "renounceOwnership",
      "outputs": [],
      "stateMutability": "nonpayable",
      "type": "function"
    },
    {
      "inputs": [
        {
          "internalType": "address",
          "name": "newOwner",
          "type": "address"
        }
      ],
      "name": "transferOwnership",
      "outputs": [],
      "stateMutability": "nonpayable",
      "type": "function"
    },
    {
      "inputs": [
        {
          "internalType": "address",
          "name": "",
          "type": "address"
        }
      ],
      "name": "vault",
      "outputs": [
        {
          "internalType": "uint256",
          "name": "",
          "type": "uint256"
        }
      ],
      "stateMutability": "view",
      "type": "function"
    },
    {
      "stateMutability": "payable",
      "type": "receive"
    },
    {
      "inputs": [
        {
          "internalType": "uint256",
          "name": "newFee",
          "type": "uint256"
        }
      ],
      "name": "feeUpdate",
      "outputs": [],
      "stateMutability": "nonpayable",
      "type": "function"
    },
    {
      "inputs": [],
      "name": "getRandomNumber",
      "outputs": [
        {
          "internalType": "bytes32",
          "name": "requestId",
          "type": "bytes32"
        }
      ],
      "stateMutability": "nonpayable",
      "type": "function"
    },
    {
      "inputs": [],
      "name": "deposit",
      "outputs": [],
      "stateMutability": "payable",
      "type": "function"
    },
    {
      "inputs": [
        {
          "internalType": "uint256",
          "name": "amount",
          "type": "uint256"
        }
      ],
      "name": "withdraw",
      "outputs": [
        {
          "components": [
            {
              "internalType": "bool",
              "name": "success",
              "type": "bool"
            },
            {
              "internalType": "bytes",
              "name": "returnData",
              "type": "bytes"
            },
            {
              "internalType": "uint256",
              "name": "returnWei",
              "type": "uint256"
            }
          ],
          "internalType": "struct Relayer.Result",
          "name": "returnData",
          "type": "tuple"
        }
      ],
      "stateMutability": "nonpayable",
      "type": "function"
    },
    {
      "inputs": [
        {
          "components": [
            {
              "internalType": "address",
              "name": "account",
              "type": "address"
            },
            {
              "internalType": "address",
              "name": "target",
              "type": "address"
            },
            {
              "internalType": "uint256",
              "name": "value",
              "type": "uint256"
            },
            {
              "internalType": "string",
              "name": "signature",
              "type": "string"
            },
            {
              "internalType": "bytes",
              "name": "data",
              "type": "bytes"
            }
          ],
          "internalType": "struct Relayer.Call",
          "name": "singleCall",
          "type": "tuple"
        }
      ],
      "name": "bmsg",
      "outputs": [
        {
          "internalType": "bytes32",
          "name": "",
          "type": "bytes32"
        }
      ],
      "stateMutability": "pure",
      "type": "function"
    },
    {
      "inputs": [
        {
          "components": [
            {
              "internalType": "address",
              "name": "account",
              "type": "address"
            },
            {
              "internalType": "address",
              "name": "target",
              "type": "address"
            },
            {
              "internalType": "uint256",
              "name": "value",
              "type": "uint256"
            },
            {
              "internalType": "string",
              "name": "signature",
              "type": "string"
            },
            {
              "internalType": "bytes",
              "name": "data",
              "type": "bytes"
            }
          ],
          "internalType": "struct Relayer.Call[]",
          "name": "calls",
          "type": "tuple[]"
        }
      ],
      "name": "bmsg",
      "outputs": [
        {
          "internalType": "bytes32",
          "name": "",
          "type": "bytes32"
        }
      ],
      "stateMutability": "pure",
      "type": "function"
    },
    {
      "inputs": [
        {
          "components": [
            {
              "internalType": "address",
              "name": "account",
              "type": "address"
            },
            {
              "internalType": "address",
              "name": "target",
              "type": "address"
            },
            {
              "internalType": "uint256",
              "name": "value",
              "type": "uint256"
            },
            {
              "internalType": "string",
              "name": "signature",
              "type": "string"
            },
            {
              "internalType": "bytes",
              "name": "data",
              "type": "bytes"
            }
          ],
          "internalType": "struct Relayer.Call[]",
          "name": "calls",
          "type": "tuple[]"
        },
        {
          "components": [
            {
              "internalType": "uint8",
              "name": "v",
              "type": "uint8"
            },
            {
              "internalType": "bytes32",
              "name": "r",
              "type": "bytes32"
            },
            {
              "internalType": "bytes32",
              "name": "s",
              "type": "bytes32"
            }
          ],
          "internalType": "struct Relayer.Sig[]",
          "name": "sigs",
          "type": "tuple[]"
        }
      ],
      "name": "tryDispatch",
      "outputs": [
        {
          "internalType": "uint256",
          "name": "blockNumber",
          "type": "uint256"
        },
        {
          "components": [
            {
              "internalType": "bool",
              "name": "success",
              "type": "bool"
            },
            {
              "internalType": "bytes",
              "name": "returnData",
              "type": "bytes"
            },
            {
              "internalType": "uint256",
              "name": "returnWei",
              "type": "uint256"
            }
          ],
          "internalType": "struct Relayer.Result[]",
          "name": "returnData",
          "type": "tuple[]"
        }
      ],
      "stateMutability": "payable",
      "type": "function"
    },
    {
      "inputs": [
        {
          "components": [
            {
              "internalType": "address",
              "name": "account",
              "type": "address"
            },
            {
              "internalType": "address",
              "name": "target",
              "type": "address"
            },
            {
              "internalType": "uint256",
              "name": "value",
              "type": "uint256"
            },
            {
              "internalType": "string",
              "name": "signature",
              "type": "string"
            },
            {
              "internalType": "bytes",
              "name": "data",
              "type": "bytes"
            }
          ],
          "internalType": "struct Relayer.Call",
          "name": "singleCall",
          "type": "tuple"
        },
        {
          "components": [
            {
              "internalType": "uint8",
              "name": "v",
              "type": "uint8"
            },
            {
              "internalType": "bytes32",
              "name": "r",
              "type": "bytes32"
            },
            {
              "internalType": "bytes32",
              "name": "s",
              "type": "bytes32"
            }
          ],
          "internalType": "struct Relayer.Sig",
          "name": "singleSig",
          "type": "tuple"
        }
      ],
      "name": "trySingleCall",
      "outputs": [
        {
          "internalType": "uint256",
          "name": "blockNumber",
          "type": "uint256"
        },
        {
          "components": [
            {
              "internalType": "bool",
              "name": "success",
              "type": "bool"
            },
            {
              "internalType": "bytes",
              "name": "returnData",
              "type": "bytes"
            },
            {
              "internalType": "uint256",
              "name": "returnWei",
              "type": "uint256"
            }
          ],
          "internalType": "struct Relayer.Result",
          "name": "returnData",
          "type": "tuple"
        }
      ],
      "stateMutability": "payable",
      "type": "function"
    }
  ],
  "bytecode": "0x60c060405267016345785d8a00006002553480156200001d57600080fd5b5073dd3782915140c8f3b190b5d67eac6dc5760c46e973a36085f69e2889c224210f603d836748e7dc0088620000686200005c620000d860201b60201c565b620000e060201b60201c565b8173ffffffffffffffffffffffffffffffffffffffff1660a08173ffffffffffffffffffffffffffffffffffffffff16815250508073ffffffffffffffffffffffffffffffffffffffff1660808173ffffffffffffffffffffffffffffffffffffffff16815250505050620001a4565b600033905090565b60008060009054906101000a900473ffffffffffffffffffffffffffffffffffffffff169050816000806101000a81548173ffffffffffffffffffffffffffffffffffffffff021916908373ffffffffffffffffffffffffffffffffffffffff1602179055508173ffffffffffffffffffffffffffffffffffffffff168173ffffffffffffffffffffffffffffffffffffffff167f8be0079c531659141344cd1fd0a4f28419497f9722a3daafe3b4186f6b6457e060405160405180910390a35050565b60805160a0516128c1620001d860003960008181610a3801526111ad015260008181610bb7015261117101526128c16000f3fe6080604052600436106100f75760003560e01c806394985ddd1161008a578063ddca3f4311610059578063ddca3f43146102fb578063ddf793d714610326578063f2fde38b14610363578063f815c03d1461038c576100fe565b806394985ddd14610274578063b291809c1461029d578063d0e30db0146102c6578063dbdff2c1146102d0576100fe565b8063715018a6116100c6578063715018a6146101d05780637453c026146101e75780638da5cb5b146102185780639126d42714610243576100fe565b80632e1a7d4d146101005780633cc0a1581461013d57806342619f661461017a57806361728f39146101a5576100fe565b366100fe57005b005b34801561010c57600080fd5b506101276004803603810190610122919061139b565b6103c9565b60405161013491906114db565b60405180910390f35b34801561014957600080fd5b50610164600480360381019061015f91906117ff565b61053d565b6040516101719190611861565b60405180910390f35b34801561018657600080fd5b5061018f610593565b60405161019c919061188b565b60405180910390f35b3480156101b157600080fd5b506101ba610599565b6040516101c79190611861565b60405180910390f35b3480156101dc57600080fd5b506101e56105c0565b005b61020160048036038101906101fc919061196f565b610648565b60405161020f9291906119cb565b60405180910390f35b34801561022457600080fd5b5061022d6107c4565b60405161023a9190611a0a565b60405180910390f35b61025d60048036038101906102589190611bce565b6107ed565b60405161026b929190611d58565b60405180910390f35b34801561028057600080fd5b5061029b60048036038101906102969190611d88565b610a36565b005b3480156102a957600080fd5b506102c460048036038101906102bf919061139b565b610ad2565b005b6102ce610b58565b005b3480156102dc57600080fd5b506102e5610bb0565b6040516102f29190611861565b60405180910390f35b34801561030757600080fd5b50610310610cc4565b60405161031d919061188b565b60405180910390f35b34801561033257600080fd5b5061034d60048036038101906103489190611dc8565b610cca565b60405161035a9190611861565b60405180910390f35b34801561036f57600080fd5b5061038a60048036038101906103859190611e11565b610d20565b005b34801561039857600080fd5b506103b360048036038101906103ae9190611e11565b610e18565b6040516103c0919061188b565b60405180910390f35b6103d161132e565b81600460003373ffffffffffffffffffffffffffffffffffffffff1673ffffffffffffffffffffffffffffffffffffffff168152602001908152602001600020541015610453576040517f08c379a000000000000000000000000000000000000000000000000000000000815260040161044a90611e9b565b60405180910390fd5b81600460003373ffffffffffffffffffffffffffffffffffffffff1673ffffffffffffffffffffffffffffffffffffffff16815260200190815260200160002060008282546104a29190611eea565b925050819055506000803373ffffffffffffffffffffffffffffffffffffffff16846040516104d090611f4f565b60006040518083038185875af1925050503d806000811461050d576040519150601f19603f3d011682016040523d82523d6000602084013e610512565b606091505b5091509150604051806060016040528083151581526020018281526020018581525092505050919050565b6000816040516020016105509190612045565b6040516020818303038152906040528051906020012060405160200161057691906120df565b604051602081830303815290604052805190602001209050919050565b60035481565b7f6c3699283bda56ad74f6b855546325b68d482e983852a7a82979cc4807b641f460001b81565b6105c8610e30565b73ffffffffffffffffffffffffffffffffffffffff166105e66107c4565b73ffffffffffffffffffffffffffffffffffffffff161461063c576040517f08c379a000000000000000000000000000000000000000000000000000000000815260040161063390612151565b60405180910390fd5b6106466000610e38565b565b600061065261132e565b4391506000846040516020016106689190612045565b6040516020818303038152906040528051906020012060405160200161068e91906120df565b6040516020818303038152906040528051906020012090506000600182866000015187602001518860400151604051600081526020016040526040516106d79493929190612180565b6020604051602081039080840390855afa1580156106f9573d6000803e3d6000fd5b505050602060405103519050600073ffffffffffffffffffffffffffffffffffffffff168173ffffffffffffffffffffffffffffffffffffffff16141580156107715750856000015173ffffffffffffffffffffffffffffffffffffffff168173ffffffffffffffffffffffffffffffffffffffff16145b6107b0576040517f08c379a00000000000000000000000000000000000000000000000000000000081526004016107a790612211565b60405180910390fd5b6107b986610efc565b925050509250929050565b60008060009054906101000a900473ffffffffffffffffffffffffffffffffffffffff16905090565b60006060439150835167ffffffffffffffff81111561080f5761080e611502565b5b60405190808252806020026020018201604052801561084857816020015b61083561132e565b81526020019060019003908161082d5790505b50905060008460405160200161085e9190612370565b6040516020818303038152906040528051906020012060405160200161088491906120df565b60405160208183030381529060405280519060200120905060005b8551811015610a2d5760008682815181106108bd576108bc612392565b5b6020026020010151905060008683815181106108dc576108db612392565b5b602002602001015190506000600185836000015184602001518560400151604051600081526020016040526040516109179493929190612180565b6020604051602081039080840390855afa158015610939573d6000803e3d6000fd5b505050602060405103519050600073ffffffffffffffffffffffffffffffffffffffff168173ffffffffffffffffffffffffffffffffffffffff16141580156109b15750826000015173ffffffffffffffffffffffffffffffffffffffff168173ffffffffffffffffffffffffffffffffffffffff16145b6109f0576040517f08c379a00000000000000000000000000000000000000000000000000000000081526004016109e790612211565b60405180910390fd5b6109f983610efc565b868581518110610a0c57610a0b612392565b5b60200260200101819052505050508080610a25906123c1565b91505061089f565b50509250929050565b7f000000000000000000000000000000000000000000000000000000000000000073ffffffffffffffffffffffffffffffffffffffff163373ffffffffffffffffffffffffffffffffffffffff1614610ac4576040517f08c379a0000000000000000000000000000000000000000000000000000000008152600401610abb90612456565b60405180910390fd5b610ace8282611162565b5050565b610ada610e30565b73ffffffffffffffffffffffffffffffffffffffff16610af86107c4565b73ffffffffffffffffffffffffffffffffffffffff1614610b4e576040517f08c379a0000000000000000000000000000000000000000000000000000000008152600401610b4590612151565b60405180910390fd5b8060028190555050565b34600460003373ffffffffffffffffffffffffffffffffffffffff1673ffffffffffffffffffffffffffffffffffffffff1681526020019081526020016000206000828254610ba79190612476565b92505081905550565b60006002547f000000000000000000000000000000000000000000000000000000000000000073ffffffffffffffffffffffffffffffffffffffff166370a08231306040518263ffffffff1660e01b8152600401610c0e9190611a0a565b602060405180830381865afa158015610c2b573d6000803e3d6000fd5b505050506040513d601f19601f82011682018060405250810190610c4f91906124e1565b1015610c90576040517f08c379a0000000000000000000000000000000000000000000000000000000008152600401610c8790612580565b60405180910390fd5b610cbf7f6c3699283bda56ad74f6b855546325b68d482e983852a7a82979cc4807b641f460001b60025461116d565b905090565b60025481565b600081604051602001610cdd9190612370565b60405160208183030381529060405280519060200120604051602001610d0391906120df565b604051602081830303815290604052805190602001209050919050565b610d28610e30565b73ffffffffffffffffffffffffffffffffffffffff16610d466107c4565b73ffffffffffffffffffffffffffffffffffffffff1614610d9c576040517f08c379a0000000000000000000000000000000000000000000000000000000008152600401610d9390612151565b60405180910390fd5b600073ffffffffffffffffffffffffffffffffffffffff168173ffffffffffffffffffffffffffffffffffffffff161415610e0c576040517f08c379a0000000000000000000000000000000000000000000000000000000008152600401610e0390612612565b60405180910390fd5b610e1581610e38565b50565b60046020528060005260406000206000915090505481565b600033905090565b60008060009054906101000a900473ffffffffffffffffffffffffffffffffffffffff169050816000806101000a81548173ffffffffffffffffffffffffffffffffffffffff021916908373ffffffffffffffffffffffffffffffffffffffff1602179055508173ffffffffffffffffffffffffffffffffffffffff168173ffffffffffffffffffffffffffffffffffffffff167f8be0079c531659141344cd1fd0a4f28419497f9722a3daafe3b4186f6b6457e060405160405180910390a35050565b610f0461132e565b6000479050606060008460600151511415610f255783608001519050610f59565b8360600151805190602001208460800151604051602001610f479291906126b0565b60405160208183030381529060405290505b600084604001511461104e57836040015160046000866000015173ffffffffffffffffffffffffffffffffffffffff1673ffffffffffffffffffffffffffffffffffffffff168152602001908152602001600020541015610fef576040517f08c379a0000000000000000000000000000000000000000000000000000000008152600401610fe690611e9b565b60405180910390fd5b836040015160046000866000015173ffffffffffffffffffffffffffffffffffffffff1673ffffffffffffffffffffffffffffffffffffffff16815260200190815260200160002060008282546110469190611eea565b925050819055505b600080856020015173ffffffffffffffffffffffffffffffffffffffff1686604001518460405161107f91906126d8565b60006040518083038185875af1925050503d80600081146110bc576040519150601f19603f3d011682016040523d82523d6000602084013e6110c1565b606091505b5091509150600084476110d49190611eea565b90506040518060600160405280841515815260200183815260200182815250955060008114611158578060046000896000015173ffffffffffffffffffffffffffffffffffffffff1673ffffffffffffffffffffffffffffffffffffffff16815260200190815260200160002060008282546111509190612476565b925050819055505b5050505050919050565b806003819055505050565b60007f000000000000000000000000000000000000000000000000000000000000000073ffffffffffffffffffffffffffffffffffffffff16634000aea07f0000000000000000000000000000000000000000000000000000000000000000848660006040516020016111e19291906126ef565b6040516020818303038152906040526040518463ffffffff1660e01b815260040161120e93929190612762565b6020604051808303816000875af115801561122d573d6000803e3d6000fd5b505050506040513d601f19601f8201168201806040525081019061125191906127cc565b5060006112748460003060016000898152602001908152602001600020546112bf565b90506001806000868152602001908152602001600020546112959190612476565b60016000868152602001908152602001600020819055506112b684826112fb565b91505092915050565b6000848484846040516020016112d894939291906127f9565b6040516020818303038152906040528051906020012060001c9050949350505050565b6000828260405160200161131092919061285f565b60405160208183030381529060405280519060200120905092915050565b604051806060016040528060001515815260200160608152602001600081525090565b6000604051905090565b600080fd5b600080fd5b6000819050919050565b61137881611365565b811461138357600080fd5b50565b6000813590506113958161136f565b92915050565b6000602082840312156113b1576113b061135b565b5b60006113bf84828501611386565b91505092915050565b60008115159050919050565b6113dd816113c8565b82525050565b600081519050919050565b600082825260208201905092915050565b60005b8381101561141d578082015181840152602081019050611402565b8381111561142c576000848401525b50505050565b6000601f19601f8301169050919050565b600061144e826113e3565b61145881856113ee565b93506114688185602086016113ff565b61147181611432565b840191505092915050565b61148581611365565b82525050565b60006060830160008301516114a360008601826113d4565b50602083015184820360208601526114bb8282611443565b91505060408301516114d0604086018261147c565b508091505092915050565b600060208201905081810360008301526114f5818461148b565b905092915050565b600080fd5b7f4e487b7100000000000000000000000000000000000000000000000000000000600052604160045260246000fd5b61153a82611432565b810181811067ffffffffffffffff8211171561155957611558611502565b5b80604052505050565b600061156c611351565b90506115788282611531565b919050565b600080fd5b600073ffffffffffffffffffffffffffffffffffffffff82169050919050565b60006115ad82611582565b9050919050565b6115bd816115a2565b81146115c857600080fd5b50565b6000813590506115da816115b4565b92915050565b600080fd5b600080fd5b600067ffffffffffffffff82111561160557611604611502565b5b61160e82611432565b9050602081019050919050565b82818337600083830152505050565b600061163d611638846115ea565b611562565b905082815260208101848484011115611659576116586115e5565b5b61166484828561161b565b509392505050565b600082601f830112611681576116806115e0565b5b813561169184826020860161162a565b91505092915050565b600067ffffffffffffffff8211156116b5576116b4611502565b5b6116be82611432565b9050602081019050919050565b60006116de6116d98461169a565b611562565b9050828152602081018484840111156116fa576116f96115e5565b5b61170584828561161b565b509392505050565b600082601f830112611722576117216115e0565b5b81356117328482602086016116cb565b91505092915050565b600060a08284031215611751576117506114fd565b5b61175b60a0611562565b9050600061176b848285016115cb565b600083015250602061177f848285016115cb565b602083015250604061179384828501611386565b604083015250606082013567ffffffffffffffff8111156117b7576117b661157d565b5b6117c38482850161166c565b606083015250608082013567ffffffffffffffff8111156117e7576117e661157d565b5b6117f38482850161170d565b60808301525092915050565b6000602082840312156118155761181461135b565b5b600082013567ffffffffffffffff81111561183357611832611360565b5b61183f8482850161173b565b91505092915050565b6000819050919050565b61185b81611848565b82525050565b60006020820190506118766000830184611852565b92915050565b61188581611365565b82525050565b60006020820190506118a0600083018461187c565b92915050565b600060ff82169050919050565b6118bc816118a6565b81146118c757600080fd5b50565b6000813590506118d9816118b3565b92915050565b6118e881611848565b81146118f357600080fd5b50565b600081359050611905816118df565b92915050565b600060608284031215611921576119206114fd565b5b61192b6060611562565b9050600061193b848285016118ca565b600083015250602061194f848285016118f6565b6020830152506040611963848285016118f6565b60408301525092915050565b600080608083850312156119865761198561135b565b5b600083013567ffffffffffffffff8111156119a4576119a3611360565b5b6119b08582860161173b565b92505060206119c18582860161190b565b9150509250929050565b60006040820190506119e0600083018561187c565b81810360208301526119f2818461148b565b90509392505050565b611a04816115a2565b82525050565b6000602082019050611a1f60008301846119fb565b92915050565b600067ffffffffffffffff821115611a4057611a3f611502565b5b602082029050602081019050919050565b600080fd5b6000611a69611a6484611a25565b611562565b90508083825260208201905060208402830185811115611a8c57611a8b611a51565b5b835b81811015611ad357803567ffffffffffffffff811115611ab157611ab06115e0565b5b808601611abe898261173b565b85526020850194505050602081019050611a8e565b5050509392505050565b600082601f830112611af257611af16115e0565b5b8135611b02848260208601611a56565b91505092915050565b600067ffffffffffffffff821115611b2657611b25611502565b5b602082029050602081019050919050565b6000611b4a611b4584611b0b565b611562565b90508083825260208201905060608402830185811115611b6d57611b6c611a51565b5b835b81811015611b965780611b82888261190b565b845260208401935050606081019050611b6f565b5050509392505050565b600082601f830112611bb557611bb46115e0565b5b8135611bc5848260208601611b37565b91505092915050565b60008060408385031215611be557611be461135b565b5b600083013567ffffffffffffffff811115611c0357611c02611360565b5b611c0f85828601611add565b925050602083013567ffffffffffffffff811115611c3057611c2f611360565b5b611c3c85828601611ba0565b9150509250929050565b600081519050919050565b600082825260208201905092915050565b6000819050602082019050919050565b6000606083016000830151611c8a60008601826113d4565b5060208301518482036020860152611ca28282611443565b9150506040830151611cb7604086018261147c565b508091505092915050565b6000611cce8383611c72565b905092915050565b6000602082019050919050565b6000611cee82611c46565b611cf88185611c51565b935083602082028501611d0a85611c62565b8060005b85811015611d465784840389528151611d278582611cc2565b9450611d3283611cd6565b925060208a01995050600181019050611d0e565b50829750879550505050505092915050565b6000604082019050611d6d600083018561187c565b8181036020830152611d7f8184611ce3565b90509392505050565b60008060408385031215611d9f57611d9e61135b565b5b6000611dad858286016118f6565b9250506020611dbe85828601611386565b9150509250929050565b600060208284031215611dde57611ddd61135b565b5b600082013567ffffffffffffffff811115611dfc57611dfb611360565b5b611e0884828501611add565b91505092915050565b600060208284031215611e2757611e2661135b565b5b6000611e35848285016115cb565b91505092915050565b600082825260208201905092915050565b7f52656c617965723a20494e56414c49445f414d4f554e54000000000000000000600082015250565b6000611e85601783611e3e565b9150611e9082611e4f565b602082019050919050565b60006020820190508181036000830152611eb481611e78565b9050919050565b7f4e487b7100000000000000000000000000000000000000000000000000000000600052601160045260246000fd5b6000611ef582611365565b9150611f0083611365565b925082821015611f1357611f12611ebb565b5b828203905092915050565b600081905092915050565b50565b6000611f39600083611f1e565b9150611f4482611f29565b600082019050919050565b6000611f5a82611f2c565b9150819050919050565b611f6d816115a2565b82525050565b600081519050919050565b600082825260208201905092915050565b6000611f9a82611f73565b611fa48185611f7e565b9350611fb48185602086016113ff565b611fbd81611432565b840191505092915050565b600060a083016000830151611fe06000860182611f64565b506020830151611ff36020860182611f64565b506040830151612006604086018261147c565b506060830151848203606086015261201e8282611f8f565b915050608083015184820360808601526120388282611443565b9150508091505092915050565b6000602082019050818103600083015261205f8184611fc8565b905092915050565b600081905092915050565b7f19457468657265756d205369676e6564204d6573736167653a0a333200000000600082015250565b60006120a8601c83612067565b91506120b382612072565b601c82019050919050565b6000819050919050565b6120d96120d482611848565b6120be565b82525050565b60006120ea8261209b565b91506120f682846120c8565b60208201915081905092915050565b7f4f776e61626c653a2063616c6c6572206973206e6f7420746865206f776e6572600082015250565b600061213b602083611e3e565b915061214682612105565b602082019050919050565b6000602082019050818103600083015261216a8161212e565b9050919050565b61217a816118a6565b82525050565b60006080820190506121956000830187611852565b6121a26020830186612171565b6121af6040830185611852565b6121bc6060830184611852565b95945050505050565b7f52656c617965723a20494e56414c49445f5349474e4154555245000000000000600082015250565b60006121fb601a83611e3e565b9150612206826121c5565b602082019050919050565b6000602082019050818103600083015261222a816121ee565b9050919050565b600081519050919050565b600082825260208201905092915050565b6000819050602082019050919050565b600060a0830160008301516122756000860182611f64565b5060208301516122886020860182611f64565b50604083015161229b604086018261147c565b50606083015184820360608601526122b38282611f8f565b915050608083015184820360808601526122cd8282611443565b9150508091505092915050565b60006122e6838361225d565b905092915050565b6000602082019050919050565b600061230682612231565b612310818561223c565b9350836020820285016123228561224d565b8060005b8581101561235e578484038952815161233f85826122da565b945061234a836122ee565b925060208a01995050600181019050612326565b50829750879550505050505092915050565b6000602082019050818103600083015261238a81846122fb565b905092915050565b7f4e487b7100000000000000000000000000000000000000000000000000000000600052603260045260246000fd5b60006123cc82611365565b91507fffffffffffffffffffffffffffffffffffffffffffffffffffffffffffffffff8214156123ff576123fe611ebb565b5b600182019050919050565b7f4f6e6c7920565246436f6f7264696e61746f722063616e2066756c66696c6c00600082015250565b6000612440601f83611e3e565b915061244b8261240a565b602082019050919050565b6000602082019050818103600083015261246f81612433565b9050919050565b600061248182611365565b915061248c83611365565b9250827fffffffffffffffffffffffffffffffffffffffffffffffffffffffffffffffff038211156124c1576124c0611ebb565b5b828201905092915050565b6000815190506124db8161136f565b92915050565b6000602082840312156124f7576124f661135b565b5b6000612505848285016124cc565b91505092915050565b7f4e6f7420656e6f756768204c494e4b202d2066696c6c20636f6e74726163742060008201527f7769746820666175636574000000000000000000000000000000000000000000602082015250565b600061256a602b83611e3e565b91506125758261250e565b604082019050919050565b600060208201905081810360008301526125998161255d565b9050919050565b7f4f776e61626c653a206e6577206f776e657220697320746865207a65726f206160008201527f6464726573730000000000000000000000000000000000000000000000000000602082015250565b60006125fc602683611e3e565b9150612607826125a0565b604082019050919050565b6000602082019050818103600083015261262b816125ef565b9050919050565b60007fffffffff0000000000000000000000000000000000000000000000000000000082169050919050565b6000819050919050565b61267961267482612632565b61265e565b82525050565b600061268a826113e3565b6126948185611f1e565b93506126a48185602086016113ff565b80840191505092915050565b60006126bc8285612668565b6004820191506126cc828461267f565b91508190509392505050565b60006126e4828461267f565b915081905092915050565b60006040820190506127046000830185611852565b612711602083018461187c565b9392505050565b600082825260208201905092915050565b6000612734826113e3565b61273e8185612718565b935061274e8185602086016113ff565b61275781611432565b840191505092915050565b600060608201905061277760008301866119fb565b612784602083018561187c565b81810360408301526127968184612729565b9050949350505050565b6127a9816113c8565b81146127b457600080fd5b50565b6000815190506127c6816127a0565b92915050565b6000602082840312156127e2576127e161135b565b5b60006127f0848285016127b7565b91505092915050565b600060808201905061280e6000830187611852565b61281b602083018661187c565b61282860408301856119fb565b612835606083018461187c565b95945050505050565b6000819050919050565b61285961285482611365565b61283e565b82525050565b600061286b82856120c8565b60208201915061287b8284612848565b602082019150819050939250505056fea2646970667358221220770dcd771c6bcc8a704a65f02b4d336038d2c50bb00c36168f2bbad1ef425c5964736f6c634300080a0033",
  "immutableReferences": {
    "73": [
      {
        "length": 32,
        "start": 2999
      },
      {
        "length": 32,
        "start": 4465
      }
    ],
    "75": [
      {
        "length": 32,
        "start": 2616
      },
      {
        "length": 32,
        "start": 4525
      }
    ]
  },
  "source": "// SPDX-License-Identifier: MIT\n\npragma solidity ^0.8.0;\n\nimport \"@openzeppelin/contracts/access/Ownable.sol\";\nimport \"@chainlink/contracts/src/v0.8/VRFConsumerBase.sol\";\n\n/**\n * @title Relayer\n * \n * Inspired by multicall, timelock contracts and permit.\n *\n * - https://github.com/makerdao/multicall/blob/master/src/Multicall.sol\n * - https://github.com/compound-finance/compound-protocol/blob/v2.8.1/contracts/Timelock.sol\n * - https://github.com/Uniswap/v2-core/blob/v1.0.1/contracts/UniswapV2ERC20.sol\n */\ncontract Relayer is\n    Ownable,\n    VRFConsumerBase(\n        0xdD3782915140c8f3b190B5D67eAc6dc5760C46E9, // VRF Coordinator\n        0xa36085F69e2889c224210F603D836748e7dC0088  // LINK Token\n    )\n{\n    // TODO: gas limit per Call.\n\n    struct Call {\n        address account; // caller\n        address target; // callee\n        uint256 value; // wei\n        string signature; // function selector\n        bytes data; // args\n    }\n    struct Sig {\n        uint8 v; bytes32 r; bytes32 s;\n    }\n    struct Result {\n        bool success;\n        bytes returnData;\n        uint256 returnWei;\n    }\n\n    // Chainlink VRF\n    bytes32 public constant keyHash = 0x6c3699283bda56ad74f6b855546325b68d482e983852a7a82979cc4807b641f4;\n    uint256 public fee = 0.1 * 10 ** 18; // 0.1 LINK (Varies by network)\n    function feeUpdate(uint newFee) public onlyOwner { fee = newFee; }\n\n    uint256 public randomResult;\n\n    /** \n     * @notice Requests randomness \n     */\n    function getRandomNumber() public returns (bytes32 requestId) {\n        require(LINK.balanceOf(address(this)) >= fee, \"Not enough LINK - fill contract with faucet\");\n        return requestRandomness(keyHash, fee);\n    }\n\n    /**\n     * @notice Callback function used by VRF Coordinator\n     */\n    function fulfillRandomness(bytes32 requestId, uint256 randomness) internal override {\n        randomResult = randomness;\n    }\n\n    // ETH Vault\n    // TODO: ERC20, et al. from DAO governance.\n    mapping (address => uint256) public vault;\n\n    function deposit() public payable {\n        vault[msg.sender] += msg.value;\n    }\n\n    function withdraw(uint256 amount) public returns (Result memory returnData) {\n        // TODO: check overflow test logic contains this line.\n        require(vault[msg.sender] >= amount, \"Relayer: INVALID_AMOUNT\");\n        vault[msg.sender] -= amount;\n        (bool success, bytes memory ret) = msg.sender.call{value: amount}(\"\");\n        returnData = Result(success, ret, amount);\n    }\n\n    /**\n     * @notice Get bmsg from multiple `calls`.\n     */\n    function bmsg(Call[] memory calls) public pure returns (bytes32) {\n        return keccak256(\n            abi.encodePacked(\n                '\\x19Ethereum Signed Message:\\n32',\n                keccak256(abi.encode(calls))\n            )\n        );\n    }\n\n    /**\n     * @notice Get bmsg from a `singleCall`.\n     */\n    function bmsg(Call memory singleCall) public pure returns (bytes32) {\n        return keccak256(\n            abi.encodePacked(\n                '\\x19Ethereum Signed Message:\\n32',\n                keccak256(abi.encode(singleCall))\n            )\n        );\n    }\n\n    /**\n     * @notice Implement IBATCH and ETH receiving logic.\n     */\n    function tryDispatch(\n        Call[] memory calls, // be a bmsg\n        Sig[] memory sigs\n    ) public payable returns (\n        uint256 blockNumber,\n        Result[] memory returnData\n    ) {\n        blockNumber = block.number;\n        returnData = new Result[](calls.length);\n        \n        // bmsg\n        bytes32 digest = keccak256(\n            abi.encodePacked(\n                '\\x19Ethereum Signed Message:\\n32',\n                keccak256(abi.encode(calls))\n            )\n        );\n\n        // TODO: random order using ChainLink VRF.\n        for(uint256 i = 0; i < calls.length; i++) {\n            Call memory callEach = calls[i];\n            Sig memory sigEach = sigs[i];\n\n            address recoveredAddress = ecrecover(digest, sigEach.v, sigEach.r, sigEach.s);\n            require(\n                recoveredAddress != address(0) && recoveredAddress == callEach.account,\n                \"Relayer: INVALID_SIGNATURE\"\n            );\n\n            returnData[i] = _call(callEach);\n        }   \n    }\n\n    /**\n     * @notice Single transaction call.\n     * Using for RTC (Remote Transaction Call) relaying.\n     */\n    function trySingleCall(\n        Call memory singleCall, // be a bmsg\n        Sig memory singleSig\n    ) public payable returns (\n        uint256 blockNumber,\n        Result memory returnData\n    ) {\n        blockNumber = block.number;\n        \n        // bmsg\n        bytes32 digest = keccak256(\n            abi.encodePacked(\n                '\\x19Ethereum Signed Message:\\n32',\n                keccak256(abi.encode(singleCall))\n            )\n        );\n\n        address recoveredAddress = ecrecover(digest, singleSig.v, singleSig.r, singleSig.s);\n        require(\n            recoveredAddress != address(0) && recoveredAddress == singleCall.account,\n            \"Relayer: INVALID_SIGNATURE\"\n        );\n\n        returnData = _call(singleCall);\n    }\n\n    function _call(\n        Call memory singleCall\n    ) internal returns (\n        Result memory returnData\n    ) {\n        uint256 prevBalance = address(this).balance;\n\n        bytes memory callData;\n        if (bytes(singleCall.signature).length == 0) {\n            callData = singleCall.data;\n        } else {\n            callData = abi.encodePacked(\n                bytes4(keccak256(bytes(singleCall.signature))), singleCall.data\n            );\n        }\n\n        if (singleCall.value != 0) {\n            // TODO: check overflow test logic contains this line.\n            require(vault[singleCall.account] >= singleCall.value, \"Relayer: INVALID_AMOUNT\");\n            vault[singleCall.account] -= singleCall.value;\n        }\n        (bool success, bytes memory ret) = singleCall.target.call{value: singleCall.value}(callData);\n\n        uint256 receivedETH = address(this).balance - prevBalance;\n        returnData = Result(success, ret, receivedETH);\n        if (receivedETH != 0) {\n            vault[singleCall.account] += receivedETH;\n        }\n    }\n\n    receive() external payable { }\n\n    fallback() external payable { }\n}\n",
  "sourcePath": "/Users/lukepark/Desktop/BATCHA/dev/batcha-dispatcher/contracts/Relayer.sol",
  "compiler": {
    "name": "solc",
    "version": "0.8.10+commit.fc410830.Emscripten.clang"
  },
  "schemaVersion": "3.4.3",
  "updatedAt": "2021-12-18T21:36:18.212Z",
  "devdoc": {
    "kind": "dev",
    "methods": {
      "owner()": {
        "details": "Returns the address of the current owner."
      },
      "renounceOwnership()": {
        "details": "Leaves the contract without owner. It will not be possible to call `onlyOwner` functions anymore. Can only be called by the current owner. NOTE: Renouncing ownership will leave the contract without an owner, thereby removing any functionality that is only available to the owner."
      },
      "transferOwnership(address)": {
        "details": "Transfers ownership of the contract to a new account (`newOwner`). Can only be called by the current owner."
      }
    },
    "title": "Relayer  Inspired by multicall, timelock contracts and permit. - https://github.com/makerdao/multicall/blob/master/src/Multicall.sol - https://github.com/compound-finance/compound-protocol/blob/v2.8.1/contracts/Timelock.sol - https://github.com/Uniswap/v2-core/blob/v1.0.1/contracts/UniswapV2ERC20.sol",
    "version": 1
  },
  "userdoc": {
    "kind": "user",
    "methods": {
      "bmsg((address,address,uint256,string,bytes))": {
        "notice": "Get bmsg from a `singleCall`."
      },
      "bmsg((address,address,uint256,string,bytes)[])": {
        "notice": "Get bmsg from multiple `calls`."
      },
      "getRandomNumber()": {
        "notice": "Requests randomness "
      },
      "tryDispatch((address,address,uint256,string,bytes)[],(uint8,bytes32,bytes32)[])": {
        "notice": "Implement IBATCH and ETH receiving logic."
      },
      "trySingleCall((address,address,uint256,string,bytes),(uint8,bytes32,bytes32))": {
        "notice": "Single transaction call. Using for RTC (Remote Transaction Call) relaying."
      }
    },
    "version": 1
  }
}