{
  "contractName": "Relayer",
  "abi": [
    {
      "anonymous": false,
      "inputs": [
        {
          "indexed": true,
          "internalType": "address",
          "name": "previousOwner",
          "type": "address"
        },
        {
          "indexed": true,
          "internalType": "address",
          "name": "newOwner",
          "type": "address"
        }
      ],
      "name": "OwnershipTransferred",
      "type": "event"
    },
    {
      "stateMutability": "payable",
      "type": "fallback"
    },
    {
      "inputs": [],
      "name": "owner",
      "outputs": [
        {
          "internalType": "address",
          "name": "",
          "type": "address"
        }
      ],
      "stateMutability": "view",
      "type": "function"
    },
    {
      "inputs": [],
      "name": "renounceOwnership",
      "outputs": [],
      "stateMutability": "nonpayable",
      "type": "function"
    },
    {
      "inputs": [
        {
          "internalType": "address",
          "name": "newOwner",
          "type": "address"
        }
      ],
      "name": "transferOwnership",
      "outputs": [],
      "stateMutability": "nonpayable",
      "type": "function"
    },
    {
      "inputs": [
        {
          "internalType": "address",
          "name": "",
          "type": "address"
        }
      ],
      "name": "vault",
      "outputs": [
        {
          "internalType": "uint256",
          "name": "",
          "type": "uint256"
        }
      ],
      "stateMutability": "view",
      "type": "function"
    },
    {
      "stateMutability": "payable",
      "type": "receive"
    },
    {
      "inputs": [],
      "name": "deposit",
      "outputs": [],
      "stateMutability": "payable",
      "type": "function"
    },
    {
      "inputs": [
        {
          "internalType": "uint256",
          "name": "amount",
          "type": "uint256"
        }
      ],
      "name": "withdraw",
      "outputs": [
        {
          "components": [
            {
              "internalType": "bool",
              "name": "success",
              "type": "bool"
            },
            {
              "internalType": "bytes",
              "name": "returnData",
              "type": "bytes"
            },
            {
              "internalType": "uint256",
              "name": "returnWei",
              "type": "uint256"
            }
          ],
          "internalType": "struct Relayer.Result",
          "name": "returnData",
          "type": "tuple"
        }
      ],
      "stateMutability": "nonpayable",
      "type": "function"
    },
    {
      "inputs": [
        {
          "components": [
            {
              "internalType": "address",
              "name": "account",
              "type": "address"
            },
            {
              "internalType": "address",
              "name": "target",
              "type": "address"
            },
            {
              "internalType": "uint256",
              "name": "value",
              "type": "uint256"
            },
            {
              "internalType": "string",
              "name": "signature",
              "type": "string"
            },
            {
              "internalType": "bytes",
              "name": "data",
              "type": "bytes"
            }
          ],
          "internalType": "struct Relayer.Call[]",
          "name": "calls",
          "type": "tuple[]"
        },
        {
          "components": [
            {
              "internalType": "uint8",
              "name": "v",
              "type": "uint8"
            },
            {
              "internalType": "bytes32",
              "name": "r",
              "type": "bytes32"
            },
            {
              "internalType": "bytes32",
              "name": "s",
              "type": "bytes32"
            }
          ],
          "internalType": "struct Relayer.Sig[]",
          "name": "sigs",
          "type": "tuple[]"
        }
      ],
      "name": "tryDispatch",
      "outputs": [
        {
          "internalType": "uint256",
          "name": "blockNumber",
          "type": "uint256"
        },
        {
          "components": [
            {
              "internalType": "bool",
              "name": "success",
              "type": "bool"
            },
            {
              "internalType": "bytes",
              "name": "returnData",
              "type": "bytes"
            },
            {
              "internalType": "uint256",
              "name": "returnWei",
              "type": "uint256"
            }
          ],
          "internalType": "struct Relayer.Result[]",
          "name": "returnData",
          "type": "tuple[]"
        }
      ],
      "stateMutability": "payable",
      "type": "function"
    },
    {
      "inputs": [
        {
          "components": [
            {
              "internalType": "address",
              "name": "account",
              "type": "address"
            },
            {
              "internalType": "address",
              "name": "target",
              "type": "address"
            },
            {
              "internalType": "uint256",
              "name": "value",
              "type": "uint256"
            },
            {
              "internalType": "string",
              "name": "signature",
              "type": "string"
            },
            {
              "internalType": "bytes",
              "name": "data",
              "type": "bytes"
            }
          ],
          "internalType": "struct Relayer.Call",
          "name": "singleCall",
          "type": "tuple"
        },
        {
          "components": [
            {
              "internalType": "uint8",
              "name": "v",
              "type": "uint8"
            },
            {
              "internalType": "bytes32",
              "name": "r",
              "type": "bytes32"
            },
            {
              "internalType": "bytes32",
              "name": "s",
              "type": "bytes32"
            }
          ],
          "internalType": "struct Relayer.Sig",
          "name": "singleSig",
          "type": "tuple"
        }
      ],
      "name": "trySingleCall",
      "outputs": [
        {
          "internalType": "uint256",
          "name": "blockNumber",
          "type": "uint256"
        },
        {
          "components": [
            {
              "internalType": "bool",
              "name": "success",
              "type": "bool"
            },
            {
              "internalType": "bytes",
              "name": "returnData",
              "type": "bytes"
            },
            {
              "internalType": "uint256",
              "name": "returnWei",
              "type": "uint256"
            }
          ],
          "internalType": "struct Relayer.Result",
          "name": "returnData",
          "type": "tuple"
        }
      ],
      "stateMutability": "payable",
      "type": "function"
    }
  ],
  "bytecode": "0x608060405234801561001057600080fd5b5061002d61002261003260201b60201c565b61003a60201b60201c565b6100fe565b600033905090565b60008060009054906101000a900473ffffffffffffffffffffffffffffffffffffffff169050816000806101000a81548173ffffffffffffffffffffffffffffffffffffffff021916908373ffffffffffffffffffffffffffffffffffffffff1602179055508173ffffffffffffffffffffffffffffffffffffffff168173ffffffffffffffffffffffffffffffffffffffff167f8be0079c531659141344cd1fd0a4f28419497f9722a3daafe3b4186f6b6457e060405160405180910390a35050565b611e278061010d6000396000f3fe60806040526004361061007f5760003560e01c80639126d4271161004e5780639126d42714610138578063d0e30db014610169578063f2fde38b14610173578063f815c03d1461019c57610086565b80632e1a7d4d14610088578063715018a6146100c55780637453c026146100dc5780638da5cb5b1461010d57610086565b3661008657005b005b34801561009457600080fd5b506100af60048036038101906100aa9190610cca565b6101d9565b6040516100bc9190610e0a565b60405180910390f35b3480156100d157600080fd5b506100da61034d565b005b6100f660048036038101906100f19190611201565b6103d5565b60405161010492919061126c565b60405180910390f35b34801561011957600080fd5b50610122610551565b60405161012f91906112ab565b60405180910390f35b610152600480360381019061014d919061146f565b61057a565b6040516101609291906115f9565b60405180910390f35b6101716107c3565b005b34801561017f57600080fd5b5061019a60048036038101906101959190611629565b61081b565b005b3480156101a857600080fd5b506101c360048036038101906101be9190611629565b610913565b6040516101d09190611656565b60405180910390f35b6101e1610c5d565b81600160003373ffffffffffffffffffffffffffffffffffffffff1673ffffffffffffffffffffffffffffffffffffffff168152602001908152602001600020541015610263576040517f08c379a000000000000000000000000000000000000000000000000000000000815260040161025a906116ce565b60405180910390fd5b81600160003373ffffffffffffffffffffffffffffffffffffffff1673ffffffffffffffffffffffffffffffffffffffff16815260200190815260200160002060008282546102b2919061171d565b925050819055506000803373ffffffffffffffffffffffffffffffffffffffff16846040516102e090611782565b60006040518083038185875af1925050503d806000811461031d576040519150601f19603f3d011682016040523d82523d6000602084013e610322565b606091505b5091509150604051806060016040528083151581526020018281526020018581525092505050919050565b61035561092b565b73ffffffffffffffffffffffffffffffffffffffff16610373610551565b73ffffffffffffffffffffffffffffffffffffffff16146103c9576040517f08c379a00000000000000000000000000000000000000000000000000000000081526004016103c0906117e3565b60405180910390fd5b6103d36000610933565b565b60006103df610c5d565b4391506000846040516020016103f591906118e4565b6040516020818303038152906040528051906020012060405160200161041b919061197e565b60405160208183030381529060405280519060200120905060006001828660000151876020015188604001516040516000815260200160405260405161046494939291906119c2565b6020604051602081039080840390855afa158015610486573d6000803e3d6000fd5b505050602060405103519050600073ffffffffffffffffffffffffffffffffffffffff168173ffffffffffffffffffffffffffffffffffffffff16141580156104fe5750856000015173ffffffffffffffffffffffffffffffffffffffff168173ffffffffffffffffffffffffffffffffffffffff16145b61053d576040517f08c379a000000000000000000000000000000000000000000000000000000000815260040161053490611a53565b60405180910390fd5b610546866109f7565b925050509250929050565b60008060009054906101000a900473ffffffffffffffffffffffffffffffffffffffff16905090565b60006060439150835167ffffffffffffffff81111561059c5761059b610e31565b5b6040519080825280602002602001820160405280156105d557816020015b6105c2610c5d565b8152602001906001900390816105ba5790505b5090506000846040516020016105eb9190611bb2565b60405160208183030381529060405280519060200120604051602001610611919061197e565b60405160208183030381529060405280519060200120905060005b85518110156107ba57600086828151811061064a57610649611bd4565b5b60200260200101519050600086838151811061066957610668611bd4565b5b602002602001015190506000600185836000015184602001518560400151604051600081526020016040526040516106a494939291906119c2565b6020604051602081039080840390855afa1580156106c6573d6000803e3d6000fd5b505050602060405103519050600073ffffffffffffffffffffffffffffffffffffffff168173ffffffffffffffffffffffffffffffffffffffff161415801561073e5750826000015173ffffffffffffffffffffffffffffffffffffffff168173ffffffffffffffffffffffffffffffffffffffff16145b61077d576040517f08c379a000000000000000000000000000000000000000000000000000000000815260040161077490611a53565b60405180910390fd5b610786836109f7565b86858151811061079957610798611bd4565b5b602002602001018190525050505080806107b290611c03565b91505061062c565b50509250929050565b34600160003373ffffffffffffffffffffffffffffffffffffffff1673ffffffffffffffffffffffffffffffffffffffff16815260200190815260200160002060008282546108129190611c4c565b92505081905550565b61082361092b565b73ffffffffffffffffffffffffffffffffffffffff16610841610551565b73ffffffffffffffffffffffffffffffffffffffff1614610897576040517f08c379a000000000000000000000000000000000000000000000000000000000815260040161088e906117e3565b60405180910390fd5b600073ffffffffffffffffffffffffffffffffffffffff168173ffffffffffffffffffffffffffffffffffffffff161415610907576040517f08c379a00000000000000000000000000000000000000000000000000000000081526004016108fe90611d14565b60405180910390fd5b61091081610933565b50565b60016020528060005260406000206000915090505481565b600033905090565b60008060009054906101000a900473ffffffffffffffffffffffffffffffffffffffff169050816000806101000a81548173ffffffffffffffffffffffffffffffffffffffff021916908373ffffffffffffffffffffffffffffffffffffffff1602179055508173ffffffffffffffffffffffffffffffffffffffff168173ffffffffffffffffffffffffffffffffffffffff167f8be0079c531659141344cd1fd0a4f28419497f9722a3daafe3b4186f6b6457e060405160405180910390a35050565b6109ff610c5d565b6000479050606060008460600151511415610a205783608001519050610a54565b8360600151805190602001208460800151604051602001610a42929190611db2565b60405160208183030381529060405290505b6000846040015114610b4957836040015160016000866000015173ffffffffffffffffffffffffffffffffffffffff1673ffffffffffffffffffffffffffffffffffffffff168152602001908152602001600020541015610aea576040517f08c379a0000000000000000000000000000000000000000000000000000000008152600401610ae1906116ce565b60405180910390fd5b836040015160016000866000015173ffffffffffffffffffffffffffffffffffffffff1673ffffffffffffffffffffffffffffffffffffffff1681526020019081526020016000206000828254610b41919061171d565b925050819055505b600080856020015173ffffffffffffffffffffffffffffffffffffffff16866040015184604051610b7a9190611dda565b60006040518083038185875af1925050503d8060008114610bb7576040519150601f19603f3d011682016040523d82523d6000602084013e610bbc565b606091505b509150915060008447610bcf919061171d565b90506040518060600160405280841515815260200183815260200182815250955060008114610c53578060016000896000015173ffffffffffffffffffffffffffffffffffffffff1673ffffffffffffffffffffffffffffffffffffffff1681526020019081526020016000206000828254610c4b9190611c4c565b925050819055505b5050505050919050565b604051806060016040528060001515815260200160608152602001600081525090565b6000604051905090565b600080fd5b600080fd5b6000819050919050565b610ca781610c94565b8114610cb257600080fd5b50565b600081359050610cc481610c9e565b92915050565b600060208284031215610ce057610cdf610c8a565b5b6000610cee84828501610cb5565b91505092915050565b60008115159050919050565b610d0c81610cf7565b82525050565b600081519050919050565b600082825260208201905092915050565b60005b83811015610d4c578082015181840152602081019050610d31565b83811115610d5b576000848401525b50505050565b6000601f19601f8301169050919050565b6000610d7d82610d12565b610d878185610d1d565b9350610d97818560208601610d2e565b610da081610d61565b840191505092915050565b610db481610c94565b82525050565b6000606083016000830151610dd26000860182610d03565b5060208301518482036020860152610dea8282610d72565b9150506040830151610dff6040860182610dab565b508091505092915050565b60006020820190508181036000830152610e248184610dba565b905092915050565b600080fd5b7f4e487b7100000000000000000000000000000000000000000000000000000000600052604160045260246000fd5b610e6982610d61565b810181811067ffffffffffffffff82111715610e8857610e87610e31565b5b80604052505050565b6000610e9b610c80565b9050610ea78282610e60565b919050565b600080fd5b600073ffffffffffffffffffffffffffffffffffffffff82169050919050565b6000610edc82610eb1565b9050919050565b610eec81610ed1565b8114610ef757600080fd5b50565b600081359050610f0981610ee3565b92915050565b600080fd5b600080fd5b600067ffffffffffffffff821115610f3457610f33610e31565b5b610f3d82610d61565b9050602081019050919050565b82818337600083830152505050565b6000610f6c610f6784610f19565b610e91565b905082815260208101848484011115610f8857610f87610f14565b5b610f93848285610f4a565b509392505050565b600082601f830112610fb057610faf610f0f565b5b8135610fc0848260208601610f59565b91505092915050565b600067ffffffffffffffff821115610fe457610fe3610e31565b5b610fed82610d61565b9050602081019050919050565b600061100d61100884610fc9565b610e91565b90508281526020810184848401111561102957611028610f14565b5b611034848285610f4a565b509392505050565b600082601f83011261105157611050610f0f565b5b8135611061848260208601610ffa565b91505092915050565b600060a082840312156110805761107f610e2c565b5b61108a60a0610e91565b9050600061109a84828501610efa565b60008301525060206110ae84828501610efa565b60208301525060406110c284828501610cb5565b604083015250606082013567ffffffffffffffff8111156110e6576110e5610eac565b5b6110f284828501610f9b565b606083015250608082013567ffffffffffffffff81111561111657611115610eac565b5b6111228482850161103c565b60808301525092915050565b600060ff82169050919050565b6111448161112e565b811461114f57600080fd5b50565b6000813590506111618161113b565b92915050565b6000819050919050565b61117a81611167565b811461118557600080fd5b50565b60008135905061119781611171565b92915050565b6000606082840312156111b3576111b2610e2c565b5b6111bd6060610e91565b905060006111cd84828501611152565b60008301525060206111e184828501611188565b60208301525060406111f584828501611188565b60408301525092915050565b6000806080838503121561121857611217610c8a565b5b600083013567ffffffffffffffff81111561123657611235610c8f565b5b6112428582860161106a565b92505060206112538582860161119d565b9150509250929050565b61126681610c94565b82525050565b6000604082019050611281600083018561125d565b81810360208301526112938184610dba565b90509392505050565b6112a581610ed1565b82525050565b60006020820190506112c0600083018461129c565b92915050565b600067ffffffffffffffff8211156112e1576112e0610e31565b5b602082029050602081019050919050565b600080fd5b600061130a611305846112c6565b610e91565b9050808382526020820190506020840283018581111561132d5761132c6112f2565b5b835b8181101561137457803567ffffffffffffffff81111561135257611351610f0f565b5b80860161135f898261106a565b8552602085019450505060208101905061132f565b5050509392505050565b600082601f83011261139357611392610f0f565b5b81356113a38482602086016112f7565b91505092915050565b600067ffffffffffffffff8211156113c7576113c6610e31565b5b602082029050602081019050919050565b60006113eb6113e6846113ac565b610e91565b9050808382526020820190506060840283018581111561140e5761140d6112f2565b5b835b818110156114375780611423888261119d565b845260208401935050606081019050611410565b5050509392505050565b600082601f83011261145657611455610f0f565b5b81356114668482602086016113d8565b91505092915050565b6000806040838503121561148657611485610c8a565b5b600083013567ffffffffffffffff8111156114a4576114a3610c8f565b5b6114b08582860161137e565b925050602083013567ffffffffffffffff8111156114d1576114d0610c8f565b5b6114dd85828601611441565b9150509250929050565b600081519050919050565b600082825260208201905092915050565b6000819050602082019050919050565b600060608301600083015161152b6000860182610d03565b50602083015184820360208601526115438282610d72565b91505060408301516115586040860182610dab565b508091505092915050565b600061156f8383611513565b905092915050565b6000602082019050919050565b600061158f826114e7565b61159981856114f2565b9350836020820285016115ab85611503565b8060005b858110156115e757848403895281516115c88582611563565b94506115d383611577565b925060208a019950506001810190506115af565b50829750879550505050505092915050565b600060408201905061160e600083018561125d565b81810360208301526116208184611584565b90509392505050565b60006020828403121561163f5761163e610c8a565b5b600061164d84828501610efa565b91505092915050565b600060208201905061166b600083018461125d565b92915050565b600082825260208201905092915050565b7f52656c617965723a20494e56414c49445f414d4f554e54000000000000000000600082015250565b60006116b8601783611671565b91506116c382611682565b602082019050919050565b600060208201905081810360008301526116e7816116ab565b9050919050565b7f4e487b7100000000000000000000000000000000000000000000000000000000600052601160045260246000fd5b600061172882610c94565b915061173383610c94565b925082821015611746576117456116ee565b5b828203905092915050565b600081905092915050565b50565b600061176c600083611751565b91506117778261175c565b600082019050919050565b600061178d8261175f565b9150819050919050565b7f4f776e61626c653a2063616c6c6572206973206e6f7420746865206f776e6572600082015250565b60006117cd602083611671565b91506117d882611797565b602082019050919050565b600060208201905081810360008301526117fc816117c0565b9050919050565b61180c81610ed1565b82525050565b600081519050919050565b600082825260208201905092915050565b600061183982611812565b611843818561181d565b9350611853818560208601610d2e565b61185c81610d61565b840191505092915050565b600060a08301600083015161187f6000860182611803565b5060208301516118926020860182611803565b5060408301516118a56040860182610dab565b50606083015184820360608601526118bd828261182e565b915050608083015184820360808601526118d78282610d72565b9150508091505092915050565b600060208201905081810360008301526118fe8184611867565b905092915050565b600081905092915050565b7f19457468657265756d205369676e6564204d6573736167653a0a333200000000600082015250565b6000611947601c83611906565b915061195282611911565b601c82019050919050565b6000819050919050565b61197861197382611167565b61195d565b82525050565b60006119898261193a565b91506119958284611967565b60208201915081905092915050565b6119ad81611167565b82525050565b6119bc8161112e565b82525050565b60006080820190506119d760008301876119a4565b6119e460208301866119b3565b6119f160408301856119a4565b6119fe60608301846119a4565b95945050505050565b7f52656c617965723a20494e56414c49445f5349474e4154555245000000000000600082015250565b6000611a3d601a83611671565b9150611a4882611a07565b602082019050919050565b60006020820190508181036000830152611a6c81611a30565b9050919050565b600081519050919050565b600082825260208201905092915050565b6000819050602082019050919050565b600060a083016000830151611ab76000860182611803565b506020830151611aca6020860182611803565b506040830151611add6040860182610dab565b5060608301518482036060860152611af5828261182e565b91505060808301518482036080860152611b0f8282610d72565b9150508091505092915050565b6000611b288383611a9f565b905092915050565b6000602082019050919050565b6000611b4882611a73565b611b528185611a7e565b935083602082028501611b6485611a8f565b8060005b85811015611ba05784840389528151611b818582611b1c565b9450611b8c83611b30565b925060208a01995050600181019050611b68565b50829750879550505050505092915050565b60006020820190508181036000830152611bcc8184611b3d565b905092915050565b7f4e487b7100000000000000000000000000000000000000000000000000000000600052603260045260246000fd5b6000611c0e82610c94565b91507fffffffffffffffffffffffffffffffffffffffffffffffffffffffffffffffff821415611c4157611c406116ee565b5b600182019050919050565b6000611c5782610c94565b9150611c6283610c94565b9250827fffffffffffffffffffffffffffffffffffffffffffffffffffffffffffffffff03821115611c9757611c966116ee565b5b828201905092915050565b7f4f776e61626c653a206e6577206f776e657220697320746865207a65726f206160008201527f6464726573730000000000000000000000000000000000000000000000000000602082015250565b6000611cfe602683611671565b9150611d0982611ca2565b604082019050919050565b60006020820190508181036000830152611d2d81611cf1565b9050919050565b60007fffffffff0000000000000000000000000000000000000000000000000000000082169050919050565b6000819050919050565b611d7b611d7682611d34565b611d60565b82525050565b6000611d8c82610d12565b611d968185611751565b9350611da6818560208601610d2e565b80840191505092915050565b6000611dbe8285611d6a565b600482019150611dce8284611d81565b91508190509392505050565b6000611de68284611d81565b91508190509291505056fea2646970667358221220fc72dd6a190c26e2815a5ba32678c6ce1347b16d5b406334e8595e0315d9b56064736f6c634300080a0033",
  "immutableReferences": {},
  "source": "// SPDX-License-Identifier: MIT\n\npragma solidity ^0.8.0;\n\nimport \"@openzeppelin/contracts/access/Ownable.sol\";\n\n/**\n * @title Relayer\n * \n * Inspired by multicall, timelock contracts and permit.\n *\n * - https://github.com/makerdao/multicall/blob/master/src/Multicall.sol\n * - https://github.com/compound-finance/compound-protocol/blob/v2.8.1/contracts/Timelock.sol\n * - https://github.com/Uniswap/v2-core/blob/v1.0.1/contracts/UniswapV2ERC20.sol\n */\ncontract Relayer is Ownable {\n    // TODO: gas limit per Call.\n\n    struct Call {\n        address account; // caller\n        address target; // callee\n        uint256 value; // wei\n        string signature; // function selector\n        bytes data; // args\n    }\n    struct Sig {\n        uint8 v; bytes32 r; bytes32 s;\n    }\n    struct Result {\n        bool success;\n        bytes returnData;\n        uint256 returnWei;\n    }\n\n    // ETH Vault\n    // TODO: ERC20, et al. from DAO governance.\n    mapping (address => uint256) public vault;\n\n    function deposit() public payable {\n        vault[msg.sender] += msg.value;\n    }\n\n    function withdraw(uint256 amount) public returns (Result memory returnData) {\n        // TODO: check overflow test logic contains this line.\n        require(vault[msg.sender] >= amount, \"Relayer: INVALID_AMOUNT\");\n        vault[msg.sender] -= amount;\n        (bool success, bytes memory ret) = msg.sender.call{value: amount}(\"\");\n        returnData = Result(success, ret, amount);\n    }\n\n    /**\n     * @dev Implement IBATCH and ETH receiving logic.\n     */\n    function tryDispatch(\n        Call[] memory calls, // be a bmsg\n        Sig[] memory sigs\n    ) public payable returns (\n        uint256 blockNumber,\n        Result[] memory returnData\n    ) {\n        blockNumber = block.number;\n        returnData = new Result[](calls.length);\n        \n        // bmsg\n        bytes32 digest = keccak256(\n            abi.encodePacked(\n                '\\x19Ethereum Signed Message:\\n32',\n                keccak256(abi.encode(calls))\n            )\n        );\n\n        // TODO: random order using ChainLink VRF.\n        for(uint256 i = 0; i < calls.length; i++) {\n            Call memory callEach = calls[i];\n            Sig memory sigEach = sigs[i];\n\n            address recoveredAddress = ecrecover(digest, sigEach.v, sigEach.r, sigEach.s);\n            require(\n                recoveredAddress != address(0) && recoveredAddress == callEach.account,\n                \"Relayer: INVALID_SIGNATURE\"\n            );\n\n            returnData[i] = _call(callEach);\n        }   \n    }\n\n    /**\n     * @dev Single transaction call.\n     * Using for RTC (Remote Transaction Call) relaying.\n     */\n    function trySingleCall(\n        Call memory singleCall, // be a bmsg\n        Sig memory singleSig\n    ) public payable returns (\n        uint256 blockNumber,\n        Result memory returnData\n    ) {\n        blockNumber = block.number;\n        \n        // bmsg\n        bytes32 digest = keccak256(\n            abi.encodePacked(\n                '\\x19Ethereum Signed Message:\\n32',\n                keccak256(abi.encode(singleCall))\n            )\n        );\n\n        address recoveredAddress = ecrecover(digest, singleSig.v, singleSig.r, singleSig.s);\n        require(\n            recoveredAddress != address(0) && recoveredAddress == singleCall.account,\n            \"Relayer: INVALID_SIGNATURE\"\n        );\n\n        returnData = _call(singleCall);\n    }\n\n    function _call(\n        Call memory singleCall\n    ) internal returns (\n        Result memory returnData\n    ) {\n        uint256 prevBalance = address(this).balance;\n\n        bytes memory callData;\n        if (bytes(singleCall.signature).length == 0) {\n            callData = singleCall.data;\n        } else {\n            callData = abi.encodePacked(\n                bytes4(keccak256(bytes(singleCall.signature))), singleCall.data\n            );\n        }\n\n        if (singleCall.value != 0) {\n            // TODO: check overflow test logic contains this line.\n            require(vault[singleCall.account] >= singleCall.value, \"Relayer: INVALID_AMOUNT\");\n            vault[singleCall.account] -= singleCall.value;\n        }\n        (bool success, bytes memory ret) = singleCall.target.call{value: singleCall.value}(callData);\n\n        uint256 receivedETH = address(this).balance - prevBalance;\n        returnData = Result(success, ret, receivedETH);\n        if (receivedETH != 0) {\n            vault[singleCall.account] += receivedETH;\n        }\n    }\n\n    receive() external payable { }\n\n    fallback() external payable { }\n}\n",
  "sourcePath": "/Users/lukepark/Desktop/BATCHA/dev/batcha-dispatcher/contracts/Relayer.sol",
  "compiler": {
    "name": "solc",
    "version": "0.8.10+commit.fc410830.Emscripten.clang"
  },
  "schemaVersion": "3.4.3",
  "updatedAt": "2021-12-18T16:51:33.769Z",
  "devdoc": {
    "kind": "dev",
    "methods": {
      "owner()": {
        "details": "Returns the address of the current owner."
      },
      "renounceOwnership()": {
        "details": "Leaves the contract without owner. It will not be possible to call `onlyOwner` functions anymore. Can only be called by the current owner. NOTE: Renouncing ownership will leave the contract without an owner, thereby removing any functionality that is only available to the owner."
      },
      "transferOwnership(address)": {
        "details": "Transfers ownership of the contract to a new account (`newOwner`). Can only be called by the current owner."
      },
      "tryDispatch((address,address,uint256,string,bytes)[],(uint8,bytes32,bytes32)[])": {
        "details": "Implement IBATCH and ETH receiving logic."
      },
      "trySingleCall((address,address,uint256,string,bytes),(uint8,bytes32,bytes32))": {
        "details": "Single transaction call. Using for RTC (Remote Transaction Call) relaying."
      }
    },
    "title": "Relayer  Inspired by multicall, timelock contracts and permit. - https://github.com/makerdao/multicall/blob/master/src/Multicall.sol - https://github.com/compound-finance/compound-protocol/blob/v2.8.1/contracts/Timelock.sol - https://github.com/Uniswap/v2-core/blob/v1.0.1/contracts/UniswapV2ERC20.sol",
    "version": 1
  },
  "userdoc": {
    "kind": "user",
    "methods": {},
    "version": 1
  }
}